:100000005CC0000077C0000075C0000073C0000035
:1000100071C000006FC000006DC000006BC0000028
:1000200069C0000067C0000065C0000063C0000038
:1000300061C000005FC000005DC000005BC0000048
:1000400059C0000057C0000055C0000053C0000058
:1000500051C000004FC000004DC000004BC0000068
:1000600049C0000047C0000045C0000043C0000078
:1000700041C000003FC000003DC000003BC0000088
:1000800039C0000037C0000035C00000084AD73B27
:100090003BCE016E84BCBFFDC12F3D6C74319ABD57
:1000A00056833DDA3D00C77F11BED9E4BB4C3E917B
:1000B0006BAAAABE000000803F0011241FBECFEF34
:1000C000D0E1DEBFCDBF11E0A0E0B1E0E2EDFAE0AB
:1000D00000E00BBF02C007900D92A230B107D9F724
:1000E00021E0A2E0B1E001C01D92A830B207E1F723
:1000F00002D0EDC485CFCF93DF93CDB7DEB72A977B
:100100000FB6F894DEBF0FBECDBFDCD01AD080E8AA
:1001100095E29BD122D098D04AE0BE016F5F7F4F1D
:10012000A3D4CE010196BDD180E091E0BAD12FEFEA
:1001300080E792E0215080409040E1F700C000004D
:10014000E9CF8CE3C5D080E053D180E751D180EA7C
:100150004FD180E04DD108C108958F929F92AF9208
:10016000BF92CF92DF92EF92FF921F93CF93DF93D4
:100170008CE303D183E03CD18DE3D0D050D1C82FA4
:100180004ED16C2F70E0762F6627EB01C82B47D13C
:1001900046D145D1182F4ED1612F70E0762F6627BA
:1001A0007B01E82AE1D0BE01DD0F880B990BF4D268
:1001B0004B015C01B701FF0C880B990BEDD2A50137
:1001C0009401F8D12BEE3DEA4CE95DE380D16B015F
:1001D0007C012BED3FE049EC50E4B3D318164CF40E
:1001E0002BED3FE049EC50E4C701B6016FD16B0144
:1001F0007C0120E030E0A901C701B6012ED288239E
:100200004CF42BED3FE049EC50E4C701B6015FD15F
:100210006B017C0120E030E044E353E4C701B60108
:100220009BD32BED3FE049E450E41BD282D2CB01BB
:10023000DF91CF911F91FF90EF90DF90CF90BF9013
:10024000AF909F908F9008958531910530F09C017B
:10025000245531402531310528F4109203011092C4
:1002600002012BC09C01205A31092932310538F492
:1002700081E090E090930301809302011EC09C01F5
:10028000265431092932310538F482E090E0909308
:1002900003018093020111C08A5F9109899738F4A4
:1002A00083E090E0909303018093020106C084E014
:1002B00090E090930301809302018091020190915C
:1002C000030108951092710080E2809370000895F8
:1002D00094EA90937400E4E7F0E090819923ECF7BE
:1002E00090917100987F983099F48093730084E81E
:1002F00080937400E4E7F0E080818823ECF780913C
:100300007100887F883131F0803231F083E00895C8
:1003100080E0089581E0089582E0089594EA909342
:100320007400E4E7F0E090819923ECF7909171007C
:10033000987F903199F48093730084E880937400DF
:10034000E4E7F0E080818823ECF780917100887FFA
:10035000803431F0803231F083E0089580E00895F8
:1003600081E0089582E0089584E980937400E4E7D1
:10037000F0E0808184FDFDCF0895BF92CF92DF929F
:10038000EF92FF920F931F93CF93DF93B82EC4E7A2
:10039000D0E00F2EF4EADF2EF02D01E710E00F2E53
:1003A000F3E7EF2EF12CF02D0F2EF4E8CF2EF02DE9
:1003B000D88288818823ECF7F8018081887F883093
:1003C000B9F7F701B082C88288818823ECF7F80179
:1003D0008081887F883111F0C7DFEACFDF91CF912C
:1003E0001F910F91FF90EF90DF90CF90BF900895F5
:1003F0008093730084E880937400E4E7F0E08081E8
:100400008823ECF780917100887F883221F0803357
:1004100021F082E0089580E0089581E0089584EC61
:1004200080937400E4E7F0E080818823ECF780910A
:100430007300089584E880937400E4E7F0E080811D
:100440008823ECF7809173000895A0E0B0E0880F56
:10045000991FAA1FBB1F880F991FAA1FBB1F9C01B2
:10046000AD01220F331F441F551F220F331F441F9E
:10047000551F60E072E18AE790E0D4D22150310943
:1004800029B930939000E5E9F0E0808186608083AF
:10049000579A8AB188618AB908955D9BFECF8CB95D
:1004A00008950F931F93CF93FC018081882351F00F
:1004B0008F01C0E0F2DFCF5FF801EC0FF11D80810A
:1004C0008111F8CFCF911F910F9108955058BB27FC
:1004D000AA270ED0FCC1EDD130F0F2D120F031F4DA
:1004E0009F3F11F41EF4BDC10EF4E095E7FBB3C1CC
:1004F000E92FFED180F3BA176207730784079507C7
:1005000018F071F49EF516C20EF4E0950B2EBA2F7A
:10051000A02D0B01B90190010C01CA01A001112409
:10052000FF27591B99F0593F50F4503E68F11A16B5
:10053000F040A22F232F342F4427585FF3CF469546
:1005400037952795A795F0405395C9F77EF41F1668
:10055000BA0B620B730B840BBAF09150A1F0FF0F32
:10056000BB1F661F771F881FC2F70EC0BA0F621F1E
:10057000731F841F48F4879577956795B795F7950E
:100580009E3F08F0B3CF9395880F08F09927EE0FA0
:100590009795879508958DD158F080E891E009F4FA
:1005A0009EEF8ED128F040E851E059F45EEF09C08B
:1005B00058C1C0C1E92FE0789BD168F3092E052A04
:1005C000C1F3261737074807590738F00E2E07F8EA
:1005D000E02569F0E025E0640AC0EF6307F80094C5
:1005E00007FADB01B9019D01DC01CA01AD01EF93FE
:1005F00047D06DD10AD05F91552331F02BED3FE00C
:1006000049E450FD49EC63CF0895DF93DD27B92F0E
:10061000BF7740E85FE31616170648075B0710F43C
:10062000D92F93D19F938F937F936F93F8D1ECE859
:10063000F0E01AD14CD12F913F914F915F9198D119
:10064000DD2349F09058A2EA2AED3FE049EC5FE350
:10065000D0785D274DDFDF913AC1D9D008F481E031
:1006600008950CD034C12CD140F023D130F021F4C6
:100670005F3F19F0F0C051115EC1F3C039D198F35A
:100680009923C9F35523B1F3951B550BBB27AA2713
:1006900062177307840738F09F5F5F4F220F331F85
:1006A000441FAA1FA9F333D00E2E3AF0E0E830D051
:1006B00091505040E695001CCAF729D0FE2F27D054
:1006C000660F771F881FBB1F261737074807AB0722
:1006D000B0E809F0BB0B802DBF01FF2793585F4F97
:1006E0002AF09E3F510568F0B6C025C15F3FECF38C
:1006F000983EDCF3869577956795B795F7959F5F5C
:10070000C9F7880F911D9695879597F90895E1E0AF
:10071000660F771F881FBB1F621773078407BA070E
:1007200020F0621B730B840BBA0BEE1F88F7E09569
:10073000089504D06894B111FEC00895E1D088F006
:100740009F5790F0B92F9927B751A0F0D1F0660FBD
:10075000771F881F991F1AF0BA95C9F712C0B130D8
:1007600081F0E8D0B1E00895E5C0672F782F8827A1
:10077000B85F39F0B93FCCF3869577956795B39517
:10078000D9F73EF490958095709561957F4F8F4F86
:100790009F4F0895E89409C097FB3EF4909580958B
:1007A000709561957F4F8F4F9F4F9923A9F0F92F37
:1007B00096E9BB279395F695879577956795B795B5
:1007C000F111F8CFFAF4BB0F11F460FF1BC06F5F9B
:1007D0007F4F8F4F9F4F16C0882311F096E911C0AD
:1007E000772321F09EE8872F762F05C0662371F0CE
:1007F00096E8862F70E060E02AF09A95660F771FE2
:10080000881FDAF7880F9695879597F90895990FBD
:100810000008550FAA0BE0E8FEEF16161706E807CA
:10082000F907C0F012161306E407F50798F0621BEB
:10083000730B840B950B39F40A2661F0232B242BC0
:10084000252B21F408950A2609F4A140A6958FEFDF
:10085000811D811D089597F99F6780E870E060E031
:1008600008959FEF80EC0895DF93CF931F930F932C
:10087000FF92EF92DF927B018C01689405C0DA2E23
:10088000EF0176D0FE01E894A5912591359145912F
:100890005591AEF3EF012CDEFE019701A801DA9429
:1008A00079F7DF90EF90FF900F911F91CF91DF913B
:1008B000089500240A9416161706180609060895C6
:1008C00000240A9412161306140605060895092E2C
:1008D0000394000C11F4882352F0BB0F40F4BF2B9B
:1008E00011F460FF04C06F5F7F4F8F4F9F4F0895DB
:1008F00057FD9058440F551F59F05F3F71F04795D1
:10090000880F97FB991F61F09F3F79F087950895B5
:10091000121613061406551FF2CF4695F1DF08C0D4
:10092000161617061806991FF1CF869571056105F1
:1009300008940895E894BB2766277727CB0197F999
:10094000089565DF08F48FEF08959B01AC0160E026
:1009500070E080E89FE385CE0BD0B9CFAADF28F006
:10096000AFDF18F0952309F076CF7BCF1124E3CFCA
:10097000BFDFA0F3959FD1F3950F50E0551F629F05
:10098000F001729FBB27F00DB11D639FAA27F00DE8
:10099000B11DAA1F649F6627B00DA11D661F829F0F
:1009A0002227B00DA11D621F739FB00DA11D621FF4
:1009B000839FA00D611D221F749F3327A00D611D11
:1009C000231F849F600D211D822F762F6A2F1124F3
:1009D0009F5750408AF0E1F088234AF0EE0FFF1F46
:1009E000BB1F661F771F881F91505040A9F79E3F7D
:1009F000510570F030CF9FCF5F3FECF3983EDCF3B2
:100A0000869577956795B795F795E7959F5FC1F7B9
:100A1000FE2B880F911D9695879597F908959B0158
:100A2000AC019ACFA1E21A2EAA1BBB1BFD010DC07F
:100A3000AA1FBB1FEE1FFF1FA217B307E407F5078E
:100A400020F0A21BB30BE40BF50B661F771F881F6A
:100A5000991F1A9469F760957095809590959B0100
:100A6000AC01BD01CF010895BB274A3031F4992371
:100A700022F4BDE2909581959F4F01C0BB27FB01F9
:100A80005527AA27880F991FAA1FA41710F0A41B87
:100A900083955051B9F7A05DAA3308F0A95DA193E1
:100AA000009779F7B111B1931192CB0100C0DC012D
:100AB000FC01672F71917723E1F7329704C07C9195
:100AC0006D9370836291AE17BF07C8F30895F894D1
:020AD000FFCF56
:020AD2000A0018
:00000001FF
