S0100000333238505F5350492E73726563DC
S11300000C9434000C943E000C943E000C943E007E
S11300100C943E000C943E000C943E000C943E0064
S11300200C943E000C943E000C943E000C943E0054
S11300300C943E000C943E000C943E000C943E0044
S11300400C943E000C943E000C943E000C943E0034
S11300500C943E000C943E000C943E000C943E0024
S11300600C943E000C943E0011241FBECFEFD8E048
S1130070DEBFCDBF0E9440000C9469000C940000C8
S113008029B181E090E002C0880F991F2A95E2F718
S11300908AB91BB80E945800C1E00E9464009BB159
S11300A090589BB98335C9F78BB18C278BB9F5CFA1
S11300B02198239A8CB58F7E8CBD8CB583608CBDC2
S11300C08CB580648CBD08950DB407FEFDCF8EB54C
S10900D00895F894FFCF2F
S9030000FC
