:100000003AC0000048C0000046C0000044C00000E4
:1000100042C0000040C000003EC000003CC00000E4
:100020003AC0000038C0000036C0000034C00000F4
:1000300032C000005BC000002EC000002CC00000D9
:100040002AC0000028C0000026C0000024C0000014
:1000500022C0000020C000001EC000001CC0000024
:100060001AC0000018C00000AB0097009C00A1005F
:10007000A600B000B50011241FBECFEFD8E0DEBF50
:10008000CDBF21E0A0E0B1E001C01D92A331B207D5
:10009000E1F730D122C3B4CF87B18C6187B988B181
:1000A000837E88B9219A299888B1836088B9089598
:1000B00020E42AB923E824BD21E020936E0020E04B
:1000C00030E048EC52E471D120E030E04FE753E4F7
:1000D00055D2D3D167BD85E085BD08953D9A289A54
:1000E00081E080936F001092800008951F920F921C
:1000F0000FB60F9211248F939F93F8948091000173
:10010000909101010196909301018093000118954F
:100110009F918F910F900FBE0F901F90189590E0B8
:100120008730910530F5FC01EC5CFF4FD0C2299A75
:100130004498439A429808952998449A4398429A39
:100140000895299A44984398429808952998449884
:10015000439A42980895299844984398429808955C
:100160002998449A43984298089529984498439826
:10017000429A089580910A01803321F483E58093A7
:100180000A014FC0813331F460E070E080E291E415
:100190008FDF47C0823331F460E070E080E491E4A7
:1001A00087DF3FC0833331F460E070E080E691E4A4
:1001B0007FDF37C0843331F460E070E080E891E4A1
:1001C00077DF2FC0853331F460E070E080E991E49F
:1001D0006FDF27C0863331F460E070E080EA91E49D
:1001E00067DF1FC0873331F460E070E080EF91E497
:1001F0005FDF17C0873511F45B9A13C0873711F49E
:100200005B980FC0853511F45C9A0BC0853711F4EB
:100210005C9807C0863511F45D9A03C0863709F4EF
:100220005D9880910A01089580910A01823419F441
:1002300082E075CF0895873411F08C3419F483E08F
:100240006ECF0895893411F0823519F484E067CFB8
:100250000895833519F480E062CF0895883419F445
:1002600085E05DCF08958A3411F486E058CF089573
:100270005A9880910A01863411F481E050DF809110
:100280000A01823419F482E04ACF0895873411F0CC
:100290008C3419F483E043CF0895893411F082350A
:1002A00019F484E03CCF0895833519F480E037CF0A
:1002B0000895883419F485E032CF08958A3411F412
:1002C00086E02DCF089556DF20E030E040E751E48E
:1002D00060910F01709110018091110190911201B4
:1002E00049D1882314F0C4DF03C05A9A80E017DF95
:1002F0009BCF08958AB18C618AB98BB1837E8BB90B
:10030000EDDECADE80E895E21ED0609102017091B8
:1003100003018091040190910501CADE0F2EC12CCA
:10032000D12CF0EFEF2EF1E4FF2EF02D36D080939C
:100330000A01C0920F01D0921001E0921101F092D7
:100340001201C1DFF3CFA0E0B0E0880F991FAA1F10
:10035000BB1F880F991FAA1FBB1F9C01AD01220F55
:10036000331F441F551F220F331F441F551F60E0CA
:1003700072E18AE790E089D1215031092093C400CD
:100380003093C500E2ECF0E0808186608083E1EC90
:10039000F0E08081886980830895E0ECF0E080815E
:1003A0008823ECF78091C60008950CD0A9C0A1D095
:1003B00040F098D030F021F45F3F19F08AC051111D
:1003C000D3C08DC0AED098F39923C9F35523B1F3B0
:1003D000951B550BBB27AA2762177307840738F0B4
:1003E0009F5F5F4F220F331F441FAA1FA9F333D013
:1003F0000E2E3AF0E0E830D091505040E695001CC7
:10040000CAF729D0FE2F27D0660F771F881FBB1F82
:10041000261737074807AB07B0E809F0BB0B802D5C
:10042000BF01FF2793585F4F2AF09E3F510568F0A8
:1004300050C09AC05F3FECF3983EDCF38695779509
:100440006795B795F7959F5FC9F7880F911D9695AA
:10045000879597F90895E1E0660F771F881FBB1F06
:10046000621773078407BA0720F0621B730B840BB3
:10047000BA0BEE1F88F7E09508955BD088F09F5780
:1004800090F0B92F9927B751A0F0D1F0660F771FE0
:10049000881F991F1AF0BA95C9F712C0B13081F0C0
:1004A00062D0B1E008955FC0672F782F8827B85FCA
:1004B00039F0B93FCCF3869577956795B395D9F721
:1004C0003EF490958095709561957F4F8F4F9F4F2B
:1004D000089597F99F6780E870E060E008959FEFC6
:1004E00080EC089500240A941616170618060906CB
:1004F000089500240A94121613061406050608959A
:10050000092E0394000C11F4882352F0BB0F40F421
:10051000BF2B11F460FF04C06F5F7F4F8F4F9F4F61
:10052000089557FD9058440F551F59F05F3F71F0E3
:100530004795880F97FB991F61F09F3F79F087954A
:100540000895121613061406551FF2CF4695F1DFD3
:1005500008C0161617061806991FF1CF8695710563
:10056000610508940895E894BB2766277727CB0197
:1005700097F9089566D008F48FEF08950BD0C0CF97
:10058000B1DF28F0B6DF18F0952309F0A2CFA7CF8E
:100590001124EACFC6DFA0F3959FD1F3950F50E069
:1005A000551F629FF001729FBB27F00DB11D639F25
:1005B000AA27F00DB11DAA1F649F6627B00DA11DCB
:1005C000661F829F2227B00DA11D621F739FB00D71
:1005D000A11D621F839FA00D611D221F749F3327E1
:1005E000A00D611D231F849F600D211D822F762F7A
:1005F0006A2F11249F5750408AF0E1F088234AF077
:10060000EE0FFF1FBB1F661F771F881F91505040C2
:10061000A9F79E3F510570F05CCFA6CF5F3FECF38A
:10062000983EDCF3869577956795B795F795E795AE
:100630009F5FC1F7FE2B880F911D9695879597F9BF
:100640000895990F0008550FAA0BE0E8FEEF161663
:100650001706E807F907C0F012161306E407F507B6
:1006600098F0621B730B840B950B39F40A2661F02A
:10067000232B242B252B21F408950A2609F4A140CD
:10068000A6958FEF811D811D0895A1E21A2EAA1B48
:10069000BB1BFD010DC0AA1FBB1FEE1FFF1FA21732
:1006A000B307E407F50720F0A21BB30BE40BF50B2F
:1006B000661F771F881F991F1A9469F760957095B8
:1006C000809590959B01AC01BD01CF010895EE0F7F
:0E06D000FF1F0590F491E02D0994F894FFCFE0
:00000001FF
