:100000000C9434000C9451000C9451000C94510049
:100010000C9451000C9451000C9451000C9451001C
:100020000C9451000C9451000C9451000C9451000C
:100030000C9451000C9451000C9451000C945100FC
:100040000C9451000C9451000C949B000C945100A2
:100050000C9451000C9451000C9451000C945100DC
:100060000C9451000C94510011241FBECFEFD8E026
:10007000DEBFCDBF11E0A0E0B1E0E2E2F2E002C0FD
:1000800005900D92A230B107D9F721E0A2E0B1E0CE
:1000900001C01D92A330B207E1F70E9453000C94F7
:1000A0000F010C9400008AB18C608AB95B9880E8DB
:1000B00095E20E94AB0078945A9A809102018435AF
:1000C000A9F45B9A2FEF84E39CE02150804090409C
:1000D000E1F700C000005B982FEF84E39CE0215023
:1000E00080409040E1F700C0000017C081110BC0B4
:1000F0005B982FEF89E698E1215080409040E1F72E
:1001000000C000000AC05B9A2FEF89E698E12150F9
:1001100080409040E1F700C0000080E091E00E9444
:10012000DE002FEF89E698E1215080409040E1F712
:1001300000C00000C2CF1F920F920FB60F92112481
:100140008F938091C600809302018F910F900FBE14
:100150000F901F901895A0E0B0E0880F991FAA1F7C
:10016000BB1F880F991FAA1FBB1F9C01AD01220F47
:10017000331F441F551F220F331F441F551F60E0BC
:1001800072E18AE790E00E94ED002150310920934E
:10019000C4003093C500E2ECF0E08081866080838B
:1001A000E1ECF0E08081886180830895E0ECF0E08C
:1001B000908195FFFDCF8093C6000895CF93DF9384
:1001C000EC018881882331F021960E94D600899124
:1001D0008111FBCFDF91CF910895A1E21A2EAA1BC6
:1001E000BB1BFD010DC0AA1FBB1FEE1FFF1FA217E7
:1001F000B307E407F50720F0A21BB30BE40BF50BE4
:10020000661F771F881F991F1A9469F7609570956C
:10021000809590959B01AC01BD01CF010895F894A4
:02022000FFCF0E
:02022200520088
:00000001FF
