S010000074657374525353492E7372656313
S11300000C94BE000C94DB000C94DB000C94DB001D
S11300100C94DB000C94DB000C94DB000C94DB00F0
S11300200C94DB000C9478010C94DB000C94DB0042
S11300300C94DB000C94DB000C94D6080C94DB00CD
S11300400C94FF090C94DB000C9432040C94DB0038
S11300500C94DB000C94DB000C94DB000C94DB00B0
S11300600C94DB000C94DB00036EDB363D9A99990B
S1130070993DABAAAA2A3E000000803F084AD73B1C
S11300803BCE016E84BCBFFDC12F3D6C74319ABD63
S113009056833DDA3D00C77F11BED9E4BB4C3E9187
S11300A06BAAAABE000000803F072C7AA5BA6CC5D3
S11300B090DA3B9365FC8BBC53F810FD3C5692835D
S11300C04DBD879D3AB63DCBC9BF5BBE73DA0FC940
S11300D03F07634236B79BD8A71A39685618AEBA99
S11300E0AB558C1D3CB7CC5763BD6DEDFD753EF62D
S11300F0177231BF000000803F08000000BE922448
S113010049123EABAAAA2ABECDCCCC4C3E0000007C
S113011080BEABAAAAAA3E00000000BF0000008077
S11301203F0000000000084178D3BB4387D1133D52
S1130130190E3CC3BD4282AD2B3E68EC8276BED91B
S11301408FE1A93E4C80EFFFBE01C4FF7F3F00005A
S1130150000000006364696E6F70737578585B000B
S11301600D0A5374617274696E67206F6620617042
S1130170706C69636174696F6E0D0A0011241FBE8F
S1130180CFEFD8E0DEBFCDBF12E0A0E0B1E0EAEEF1
S1130190FEE202C005900D92A03BB107D9F727E01B
S11301A0A0EBB2E001C01D92A63EB207E1F70E94A7
S11301B0C2070C9473170C940000EAE7F0E0808106
S11301C080648083808186FDFDCF209178008091BA
S11301D0790090E0982F8827820F911D0895EAE70F
S11301E0F0E080818F77808380E480937C0080813D
S11301F0806880830E94DD000895EAE7F0E0808152
S11302008F77808381E480937C0080818068808301
S11302100E94DD00089587B18C6387B988B18C632F
S113022088B90E94BA090895BC0180E090E00E9458
S1130230040C27EE3BEF49E750E40E94190D0E949D
S1130240D50B6093B3027093B4028093B50290937C
S1130250B602E1EBF0E0808182608083E0E7F0E0C9
S1130260808181608083789408958230A9F028F495
S1130270882371F1813031F008958330B9F08430EE
S1130280F1F0089545984398109200018091B202CC
S113029090E00E941401089544984298109200013D
S11302A08091B20290E00E94140108954398109244
S11302B000018091B20290E00E94140108954598D3
S11302C0109200018091B20290E00E9414010895FE
S11302D08091000181110BC0459A449A439A429A35
S11302E082E390E00E94140181E08093000108956C
S11302F01F920F920FB60F9211242F933F934F9397
S11303005F936F937F938F939F93AF93BF93EF9379
S1130310FF938091B3029091B402A091B502B09181
S1130320B6020197A109B1098093B3029093B40274
S1130330A093B502B093B602892B8A2B8B2B29F498
S113034080E00E9435011092B100FF91EF91BF91BE
S1130350AF919F918F917F916F915F914F913F9159
S11303602F910F900FBE0F901F901895BF92CF92B0
S1130370DF92EF92FF920F931F93CF93DF930E942C
S1130380CC09EC018CE692E00E94910ACE019927F7
S11303909F938F9389E091E09F938F931F9282E3C1
S11303A08F9386E593E09F938F930E94261186E5B1
S11303B093E00E94910A8CE692E00E94910A2DB784
S11303C03EB7285F3F4F0FB6F8943EBF0FBE2DBF18
S11303D0C03108F0E1C08CE091E00E94910A80E015
S11303E00E9435010E94FD00EC010E94EF009C0177
S11303F0275632402636310558F48EE18093B202F6
S113040084E00E94350184E191E00E94910A7BC05E
S11304109C012D5C32402736310558F48CE38093DF
S1130420B20284E00E94350188E191E00E94910AC1
S11304306AC09C01245333402636310558F480E5C4
S11304408093B20284E00E9435018CE191E00E9425
S1130450910A59C09C012A5933402636310558F473
S113046084E68093B20284E00E94350180E291E048
S11304700E94910A48C09C0123533140263631051D
S113048058F48EE18093B20283E00E94350184E245
S113049091E00E94910A37C09C012C5C31092736F7
S11304A0310558F48CE38093B20283E00E94350155
S11304B088E291E00E94910A26C09C0126563109E7
S11304C02636310558F480E58093B20283E00E9419
S11304D035018CE291E00E94910A15C0863691059F
S11304E058F484E68093B20283E00E94350180E3ED
S11304F091E00E94910A07C080E00E94350184E3E4
S113050091E00E94910ACE01835391408636910571
S113051058F48EE18093B20282E00E94350187E3B1
S113052091E00E94910A94C1CE018C5C91098736B6
S1130530910558F48CE38093B20282E00E94350165
S11305408BE391E00E94910A83C1CE018656910902
S11305508636910558F480E58093B20282E00E94C9
S113056035018FE391E00E94910A72C1C636D1052C
S113057058F484E68093B20282E00E94350183E459
S113058091E00E94910A64C180E00E94350184E3F5
S113059091E00E94910A5CC187E491E00E94910A73
S11305A00E94FD00EC010E94EF008C011F938F93C9
S11305B00F2EF9E0CF2EF1E0DF2EF02DDF92CF9257
S11305C01F920F2EF2E3BF2EF02DBF920F2EF6E5F1
S11305D0EF2EF3E0FF2EF02DFF92EF920E942611F2
S11305E0C7010E94910A82E591E00E94910ADF937B
S11305F0CF93DF92CF921F92BF92FF92EF920E940D
S11306002611C7010E94910A8AE00E94890AC80142
S1130610875692402DB73EB7205F3F4F0FB6F894F0
S11306203EBF0FBE2DBF8636910558F48EE18093F0
S1130630B20284E00E94350184E191E00E94910AB3
S11306407BC0C8018D5C92408736910558F48CE3D9
S11306508093B20284E00E94350188E191E00E9417
S1130660910A6AC0C801845393408636910558F4B0
S113067080E58093B20284E00E9435018CE191E030
S11306800E94910A59C0C8018A599340863691053F
S113069058F484E68093B20284E00E94350180E23B
S11306A091E00E94910A48C0C80183539140863664
S11306B0910558F48EE18093B20283E00E943501E3
S11306C084E291E00E94910A37C0C8018C5C9109D0
S11306D08736910558F48CE38093B20283E00E943C
S11306E0350188E291E00E94910A26C0C80186562D
S11306F091098636910558F480E58093B20283E02F
S11307000E9435018CE291E00E94910A15C00636E0
S1130710110558F484E68093B20283E00E94350107
S113072080E391E00E94910A07C080E00E943501B5
S113073084E391E00E94910ACE0187569240863666
S1130740910558F48EE18093B20281E00E94350154
S113075087E591E00E94910A7BC0CE018D5C9240B6
S11307608736910558F48CE38093B20281E00E94AD
S113077035018BE591E00E94910A6AC0CE01845351
S113078093408636910558F480E58093B20281E067
S11307900E9435018FE591E00E94910A59C0CE0173
S11307A08A5993408636910558F484E68093B202C0
S11307B081E00E94350183E691E00E94910A48C0DD
S11307C0CE01835391408636910558F48EE180938F
S11307D0B20282E00E94350187E391E00E94910A0F
S11307E037C0CE018C5C91098736910558F48CE3AF
S11307F08093B20282E00E9435018BE391E00E9473
S1130800910A26C0CE01865691098636910558F480
S113081080E58093B20282E00E9435018FE391E08B
S11308200E94910A15C0C636D10558F484E6809317
S1130830B20282E00E94350183E491E00E94910AB1
S113084007C080E00E94350184E391E00E94910A90
S1130850DF91CF911F910F91FF90EF90DF90CF9098
S1130860BF9008951F920F920FB60F9211242F93E9
S11308703F938F939F93EF93FF938091C6008F34A0
S113088021F18B3491F0E091E602F091E70280834C
S11308902091E6023091E7022F5F3F4F3093E70249
S11308A02093E6028B3241F010C08FEF9FEF9093BC
S11308B006018093050109C080910501909106010C
S11308C001969093060180930501FF91EF919F910A
S11308D08F913F912F910F900FBE0F901F901895FD
S11308E0E6E5F3E022E834E087E091E08193E21763
S11308F0F307E1F708952F923F924F925F926F9220
S11309007F928F929F92AF92BF92CF92DF92EF929B
S1130910FF920F931F93CF93DF93CDB7DEB7669704
S11309200FB6F894DEBF0FBECDBF8B01FE0131962A
S113093024E1DF011D922A95E9F740E150E060E0EF
S113094070E00E948E0F2B013C016D8B5E8A40E1AA
S113095050E060E070E0C8010E948E0F4B015C0122
S1130960AA24BB248091F8029091F902A091FA0282
S1130970B091FB0288159905AA05BB0509F065C06D
S11309800CC09801F70180819181A281B3818815FF
S11309909905AA05BB05B1F502C020E030E0890144
S11309A0000F111F020F131F000F111F000F111F43
S11309B00C501D4FB20180E090E00E94040CD8015D
S11309C06D937D938D939C9313975F924F9289E0DF
S11309D091E09F938F931F9284E18F938E010F5F19
S11309E01F4F1F930F930E94261187E691E00E94E8
S11309F09909C8010E9499090FB6F894DEBF0FBE89
S1130A00CDBF51C0FE89FF938D898F933F922F9262
S1130A101F9294E19F93DF92CF920E94261186E762
S1130A2091E00E949909C6010E9499090F5F1F4F26
S1130A30ACE0EA0EF11C0FB6F894DEBF0FBECDBFDA
S1130A400430110509F09DCF2EC05F924F9289E0CA
S1130A5091E09F938F931F9284E18F938E010F5F98
S1130A601F4F1F930F930E94261186E791E00E9467
S1130A709909C8010E9499090F2EF4E0EF2EF3E0C2
S1130A80FF2EF02D0FB6F894DEBF0FBECDBF01E0F0
S1130A9010E00F2EF9E02F2EF1E03F2EF02DDE01B5
S1130AA011966D016ECF66960FB6F894DEBF0FBE39
S1130AB0CDBFDF91CF911F910F91FF90EF90DF9009
S1130AC0CF90BF90AF909F908F907F906F905F90EA
S1130AD04F903F902F9008954F925F926F927F9224
S1130AE08F929F92AF92BF92CF92DF92EF92FF923A
S1130AF00F931F93CF93DF93CDB7DEB7CB55D14080
S1130B000FB6F894DEBF0FBECDBF8C018DE891E027
S1130B100E949909C8010E949909B801CE01019661
S1130B200E94B210F8018081882321F08D3011F0E9
S1130B308A3029F48EE991E00E949909A5C06BE6F8
S1130B4072E0C8010E94AD10882E992E6E01F0EB60
S1130B50CF1AFEEFDF0ADF92CF928E010F5B1E4F9A
S1130B601F930F937E0183EDE81A8EEFF80AFF922C
S1130B70EF928FEA91E09F938F939F928F920E94BE
S1130B8056115E019BEAA91A9EEFB90ABF92AF9271
S1130B901F930F931F930F931F930F9384EC91E074
S1130BA09F938F93FF92EF920E9456118FED91E0E5
S1130BB00E949909882D992D0E94990989EE91E046
S1130BC00E949909C7010E949909B501C6010E94B2
S1130BD07B040FB6F894DEBF0FBECDBF460167019C
S1130BE00F2EFFEA6F2EF1E07F2EF02D0F2EF4EC86
S1130BF04F2EF1E05F2EF02D3DC0F70180818B3246
S1130C0041F083EF91E00E949909C7010E9499097C
S1130C103BC09F928F921F930F93DF92CF927F924C
S1130C206F92FF92EF920E945611BF92AF921F9360
S1130C300F931F930F931F930F935F924F92DF9223
S1130C40CF920E9456118FED91E00E949909C7013D
S1130C500E94990989EE91E00E949909C6010E94B7
S1130C609909B501C4010E947B040FB6F894DEBF54
S1130C700FBECDBF6BE672E080E090E00E94AD1045
S1130C807C01892B09F0B9CFC55ADE4F0FB6F89411
S1130C90DEBF0FBECDBFDF91CF911F910F91FF90AB
S1130CA0EF90DF90CF90BF90AF909F908F907F9008
S1130CB06F905F904F9008954F925F926F927F92E2
S1130CC08F929F92AF92BF92CF92DF92EF92FF9258
S1130CD00F931F93CF93DF9300D000D0CDB7DEB72F
S1130CE09A8389838BE092E00E94F6101092830429
S1130CF01092820480E090E00EE112E0FC01EE0F1D
S1130D00FF1FE80FF91FEE0FFF1FEE0FFF1F898172
S1130D109A81E80FF91F83858F9382858F9381854C
S1130D208F9380858F931F930F930E94E01080917F
S1130D3082049091830401969093830480938204A7
S1130D400F900F900F900F900F900F90843091059B
S1130D50ACF220E030E0A901CA01B9010E945C0BA9
S1130D600E94280B9B01AC010E94A10A9B01AC01CB
S1130D7060E070E084E393E40E94A00A20E030E0A5
S1130D8044EB52E40E94570B81116EC0E981FA8151
S1130D9014890589F688E78820E030E040E251E4D0
S1130DA0612F702F8F2D9E2D0E94570B8823FCF4EA
S1130DB01F928AE58F93EF92FF920F931F93809176
S1130DC004018F93809103018F93809102018F938B
S1130DD0809101018F9385E292E09F938F930E940B
S1130DE0E0100FB6F894DEBF0FBECDBFB6C0E981E8
S1130DF0FA8110850185F284F385F98320E030E0DF
S1130E0040E251E4E981612F702F8F2D9E2F0E94C3
S1130E10570B88230CF0A1C02091010130910201ED
S1130E204091030150910401E981612F702F8F2DAE
S1130E309E2F0E945C0B0E940D0B9F938F937F93B8
S1130E406F9389818F93FF920F931F931F921F9229
S1130E5085E292E09F938F930E94E0100FB6F8947E
S1130E60DEBF0FBECDBF79C0E981FA818084918451
S1130E70A284B3842489358946895789C501B4017C
S1130E800E94190D2091010130910201409103014A
S1130E90509104010E945C0B6B017C01A50194013B
S1130EA0C501B4010E94190D2B013C01A701960153
S1130EB0C701B6010E94190D69837A838B839C83D1
S1130EC029813A814B815C81C301B2010E94A00A4D
S1130ED00E94000E2B013C01C701B6010E94D60DF1
S1130EE0A50194010E945C0B0E940D0B4B015C0157
S1130EF0C301B2010E94CE0B2B013C01E8EEF2E0EB
S1130F0071836083C701B6010E94CE0B6B017C0123
S1130F107093EB026093EA0220EE3EE245E652E46F
S1130F20C501B4010E94190D0E94CE0B4B015C0156
S1130F307093ED026093EC02C2010E949909E8EEFD
S1130F40F2E0D182C082C6010E949909E8EEF2E083
S1130F5091828082C4010E9499090F900F900F9092
S1130F600F90DF91CF911F910F91FF90EF90DF9041
S1130F70CF90BF90AF909F908F907F906F905F9035
S1130F804F900895CF93DF93CDB7DEB7CC52D140C5
S1130F900FB6F894DEBF0FBECDBFE4EFF2E088E9F0
S1130FA09DE5A7EBB0E084839583A683B7838CE9A2
S1130FB091E9ADE1B0E0808B918BA28BB38B83EC94
S1130FC094EAA1E1B0E0848F958FA68FB78F8CE768
S1130FD095EDA4E0B0E080A791A7A2A7B3A72091C4
S1130FE005013091060142E3429FC001439F900DE9
S1130FF011248C579B4F9093E7028093E6022FEFC6
S113100033E284EF215030408040E1F700C000001B
S11310108CE291E0E2EBF6E0DF019C011D922150AD
S11310203040E1F780E895E20E94160A80E895E2F4
S11310300E94620A78940E946B090E940B0180E668
S113104091E00E94A80984E492E00E944C0A89E499
S113105092E00E944C0A83E592E00E944C0A81E6E9
S113106092E00E944C0A8EE692E00E944C0A3FEF06
S113107083ED90E3315080409040E1F700C00000E0
S113108086E593E09093E7028093E6020F2EF4E264
S1131090AF2EF3E0BF2EF02D0F2EF1E9CF2EF2E0AC
S11310A0DF2EF02D0E9470048FE792E00E944C0A1C
S11310B0AFEFB3E2E4EFA150B040E040E1F700C08D
S11310C0000088E892E00E94990986E593E00E9476
S11310D0990966E573E0CE0101960E94B210CE0133
S11310E001960E946C050F2EF6E4EF2EF6E0FF2E1B
S11310F0F02D04EF12E0D7012D913D914D915C91BB
S113110060E070E089E992E40E94A00A20E030E007
S113111040EA51E40E945C0B9B01AC0160E070E08A
S113112080E291E40E94860D20E030E048EC52E435
S11311300E94190D262F372F462F572F682F792FEE
S1131140F80140875187628773879F938F933F93FA
S11311502F93DF92CF920E94E010FCE0EF0EF11C7F
S1131160045F1F4F0F900F900F900F900F900F90F0
S11311700A151B0509F0BFCF84EF92E00E945C06BC
S11311800E94B6012FEF30E782E0215030408040CA
S1131190E1F700C0000086E593E09093E7028093B6
S11311A0E6028FE992E00E9499097CCF1F920F9288
S11311B00FB60F9211248F939F93EF93FF93809117
S11311C0C002813029F58091BF028150F9F48091E9
S11311D0BC029091BD0280FF02C0419A01C04198B7
S11311E08091BC029091BD02969587959093BD0223
S11311F08093BC028091BE0281508093BE02811113
S113120004C01092C00283E001C083E08093BF0257
S11312108091C202811156C08091BB028823E9F0FB
S11312208091BA0281508093BA0281114BC010920E
S1131230BB021092C102E091C302F0E08091B902B6
S1131240EC53FD4F80838091C3028F5F8093C30270
S11312508032C0F11092C30235C08091C102811165
S113126010C030992FC081E08093C1021092B9025E
S113127094E09093BA0298E09093B8028093B702F6
S113128021C08091BA028150D9F4309B07C090915B
S1131290B9028091B702892B8093B9028091B70279
S11312A0880F8093B7028091B80281508093B8026E
S11312B0811105C081E08093BB0283E001C083E01B
S11312C08093BA02FF91EF919F918F910F900FBE7F
S11312D00F901F9018951092C0021092C1021092A4
S11312E0C202419A399A38989FB7F89481E287BD2F
S11312F082E084BD85BDEEE6F0E08081826080837B
S113130016BC9FBF08959091C0029130E1F393E021
S11313109093BF029AE09093BE0290E0880F991FC9
S113132092609093BD028093BC0281E08093C002DE
S11313300895CF93DF93EC018881882331F02196BF
S11313400E94830989918111FBCFDF91CF91089588
S1131350CF93DF93EC012196FC018491882339F02B
S11313600E948309FE01849121968111F9CFDF91B6
S1131370CF910895539A5B9854985C98569A579ACB
S11313805E9A5F9885B5826085BDEEE6F0E0808167
S113139081608083789408955B9A8AE18A95F1F755
S11313A000C05B984C9BFECF16BC1092E5021092D5
S11313B0E40206C08091E4029091E502059711F0E1
S11313C04C99F8CF86B56091E4027091E502762FCE
S11313D06627680F711D80E090E00E94040C2DECDC
S11313E03CEC48EE51E40E945C0B20E030E040E02D
S11313F05FE30E94190D0E94D50BCB0108951F9243
S11314000F920FB60F9211248F939F938091E40251
S11314109091E50201969093E5028093E4029F91F6
S11314208F910F900FBE0F901F901895A0E0B0E021
S1131430880F991FAA1FBB1F880F991FAA1FBB1FC4
S11314409C01AD01220F331F441F551F220F331F70
S1131450441F551F60E072E18AE790E00E946C0F20
S1131460215031092093C4003093C500E2ECF0E030
S1131470808186608083E1ECF0E0808180688083F5
S11314808081886180830895E0ECF0E0908195FF8D
S1131490FDCF8093C60008950F931F93CF93FC0153
S11314A08081882359F08F01C0E00E94440ACF5FF5
S11314B0F801EC0FF11D80818111F7CFCF911F91BD
S11314C00F910895A0E0B0E0880F991FAA1FBB1FD9
S11314D0880F991FAA1FBB1F9C01AD01220F331F48
S11314E0441F551F220F331F441F551F60E072E134
S11314F08AE790E00E946C0F215031092093C400C8
S11315003093C50086E08093C20088E18093C100D7
S11315100895E0ECF0E0908195FFFDCF8093C60044
S11315200895CF93DF93EC018881882331F02196CD
S11315300E94890A89918111FBCFDF91CF9108958F
S11315405058BB27AA270E94B80A0C94D70C0E94B3
S1131550C90C38F00E94D00C20F039F49F3F19F4E4
S113156026F40C948B0C0EF4E095E7FB0C94850C9C
S1131570E92F0E94E80C58F3BA176207730784072F
S1131580950720F079F4A6F50C940A0D0EF4E09575
S11315900B2EBA2FA02D0B01B90190010C01CA0129
S11315A0A0011124FF27591B99F0593F50F4503ED4
S11315B068F11A16F040A22F232F342F4427585FC6
S11315C0F3CF469537952795A795F0405395C9F7DE
S11315D07EF41F16BA0B620B730B840BBAF0915096
S11315E0A1F0FF0FBB1F661F771F881FC2F70EC035
S11315F0BA0F621F731F841F48F487957795679508
S1131600B795F7959E3F08F0B0CF9395880F08F0F3
S11316109927EE0F9795879508959F939F77EEE30B
S113162089379E0728F4E8E6F0E00E94B50C0CC068
S11316300E94410C9058A2EA2AED3FE049EC5FE396
S11316400E94B80A0E94D70C0F9007FC9058089586
S1131650DF93DD27B92FBF7740E85FE3161617063F
S113166048075B0718F4D92F0E94110D9F938F939D
S11316707F936F930E94400EECE7F0E00E948E0C83
S11316800E94D70C2F913F914F915F910E942C0D96
S1131690DD2351F09058A2EA2AED3FE049EC5FE3E4
S11316A0D0785D270E94B80ADF910C94D70C0E9471
S11316B0610C08F481E008950E94700B0C94D70C1F
S11316C00E94D00C58F00E94C90C40F029F45F3FEE
S11316D029F00C94850C51110C940B0D0C948B0C6B
S11316E00E94E80C68F39923B1F3552391F3951BF9
S11316F0550BBB27AA2762177307840738F09F5F2F
S11317005F4F220F331F441FAA1FA9F335D00E2E9B
S11317103AF0E0E832D091505040E695001CCAF708
S11317202BD0FE2F29D0660F771F881FBB1F2617CB
S113173037074807AB07B0E809F0BB0B802DBF01A2
S1131740FF2793585F4F3AF09E3F510578F00C9471
S1131750850C0C940B0D5F3FE4F3983ED4F386950F
S113176077956795B795F7959F5FC9F7880F911D92
S11317709695879597F90895E1E0660F771F881F7E
S1131780BB1F621773078407BA0720F0621B730B31
S1131790840BBA0BEE1F88F7E09508950E94D50BD1
S11317A06894B1110C940B0D08950E94F00C88F00C
S11317B09F5798F0B92F9927B751B0F0E1F0660F11
S11317C0771F881F991F1AF0BA95C9F714C0B13052
S11317D091F00E940A0DB1E008950C940A0D672F50
S11317E0782F8827B85F39F0B93FCCF38695779581
S11317F06795B395D9F73EF490958095709561956A
S11318007F4F8F4F9F4F0895E89409C097FB3EF494
S113181090958095709561957F4F8F4F9F4F992339
S1131820A9F0F92F96E9BB279395F69587957795B7
S11318306795B795F111F8CFFAF4BB0F11F460FF77
S11318401BC06F5F7F4F8F4F9F4F16C0882311F0CF
S113185096E911C0772321F09EE8872F762F05C0E3
S1131860662371F096E8862F70E060E02AF09A957E
S1131870660F771F881FDAF7880F9695879597F973
S11318800895DF93CF931F930F938B01EC01E9EA43
S1131890F0E00E948E0C0E94D70C9801AE018B01DF
S11318A0EC0160E070E080E89FE30E94A00A0E94DF
S11318B0000E9801AE010F911F91CF91DF910C940E
S11318C02C0D990F0008550FAA0BE0E8FEEF161631
S11318D01706E807F907C0F012161306E407F50720
S11318E098F0621B730B840B950B39F40A2661F094
S11318F0232B242B252B21F408950A2609F4A14037
S1131900A6958FEF811D811D089597F99F6780E843
S113191070E060E008959FEF80EC0895DF93CF932B
S11319201F930F93FF92EF92DF927B018C016894D7
S113193006C0DA2EEF010E942C0DFE01E894A59159
S11319402591359145915591A6F3EF010E94B80A6E
S1131950FE019701A801DA9469F7DF90EF90FF90F8
S11319600F911F91CF91DF9108959F938F937F9350
S11319706F93FF93EF939B01AC010E94190DEF91BC
S1131980FF910E948E0C2F913F914F915F910C9487
S1131990190D00240A941616170618060906089548
S11319A000240A9412161306140605060895092E37
S11319B00394000C11F4882352F0BB0F40F4BF2BA6
S11319C011F460FF04C06F5F7F4F8F4F9F4F0895E6
S11319D057FD9058440F551F59F05F3F71F04795DC
S11319E0880F97FB991F61F09F3F79F087950895C1
S11319F0121613061406551FF2CF4695F1DF08C0E0
S1131A00161617061806991FF1CF869571056105FC
S1131A1008940895E894BB2766277727CB0197F9A4
S1131A2008959B01AC0160E070E080E89FE30C94B2
S1131A305C0B0E942C0D0C94D70C0E94C90C38F03E
S1131A400E94D00C20F0952311F00C94850C0C947A
S1131A508B0C11240C940B0D0E94E80C70F3959FD1
S1131A60C1F3950F50E0551F629FF001729FBB2791
S1131A70F00DB11D639FAA27F00DB11DAA1F649F2D
S1131A806627B00DA11D661F829F2227B00DA11DE0
S1131A90621F739FB00DA11D621F839FA00D611D66
S1131AA0221F749F3327A00D611D231F849F600D87
S1131AB0211D822F762F6A2F11249F5750409AF0B0
S1131AC0F1F088234AF0EE0FFF1FBB1F661F771F3C
S1131AD0881F91505040A9F79E3F510580F00C9407
S1131AE0850C0C940B0D5F3FE4F3983ED4F386957C
S1131AF077956795B795F795E7959F5FC1F7FE2BA7
S1131B00880F911D9695879597F90895FA01EE0F20
S1131B10FF1F309621053105A1F16115710561F4AE
S1131B208038BFE39B0749F168949038810561F0E0
S1131B308038BFEF9B0741F099234AF5FF3FE10549
S1131B403105210519F1E8940894E795D901AA23F0
S1131B5029F4AB2FBE2FF85FD0F310C0FF5F70F4F1
S1131B60A695E0F7F73950F019F0FF3A38F49F776B
S1131B709F930DD00F9007FC9058089546F00C9455
S1131B808B0C60E070E080E89FE308954FE79F7757
S1131B905F934F933F932F930E94F00E2F913F91A9
S1131BA04F915F910E94190D0C944C0E0E94F00C01
S1131BB0E8F09E37E8F09639B8F49E3848F4672F79
S1131BC0782F8827985FF9CF8695779567959395B1
S1131BD09539D0F3B62FB1706B0F711D811D20F4B0
S1131BE087957795679593950C947E0E0C94990E32
S1131BF00C940B0D19F416F40C948B0C0C94990E94
S1131C000E94F00CB8F39923C9F3B6F39F57550B10
S1131C1087FF0E94A70E0024A0E640EA90018058A6
S1131C205695979528F4805C660F771F881F20F0DF
S1131C3026173707480730F4621B730B840B2029DF
S1131C4031294A2BA69517940794202531254A2734
S1131C5058F7660F771F881F20F0261737074807A5
S1131C6030F4620B730B840B200D311D411DA095C4
S1131C7081F7B901842F9158880F96958795089517
S1131C809B01AC010C94190D29F416F00C94850CED
S1131C900C940A0D0C948B0C0E94F00CA8F396384B
S1131CA0A0F707F80F92E8942BE33AEA48EB5FE7D2
S1131CB00E942F0D0F920F920F924DB75EB70F92A5
S1131CC00E94380FE1EDF0E00E948E0C4F915F917D
S1131CD0EF91FF91E595EE1FFF1F49F0FE57E06875
S1131CE04427EE0F441FFA95E1F74195550B0E94E6
S1131CF0B20E0F9007FE0C94110D0895882371F411
S1131D00772321F09850872B762F07C0662311F490
S1131D1099270DC09051862B70E060E02AF09A95C7
S1131D20660F771F881FDAF7880F9695879597F9BE
S1131D3008959F3F31F0915020F4879577956795EA
S1131D40B795880F911D9695879597F908959150A9
S1131D505040660F771F881FD2F708950C94850CA6
S1131D600C94990E0E94F00CD8F39923C9F3940FA4
S1131D70511DA3F39150504094F059F0882332F050
S1131D80660F771F881F91505040C1F79E3F510541
S1131D902CF7880F911D9695879597F908955F3FC5
S1131DA0ACF0983E9CF0BB27869577956795B795E0
S1131DB008F4B1609395C1F7BB0F58F711F460FFB5
S1131DC0E8CF6F5F7F4F8F4F9F4FE3CF0C940B0D86
S1131DD016F00C94990E0C948B0C68940C94850C4E
S1131DE00E94F00CA8F39923C1F3AEF3DF93CF93D1
S1131DF01F930F93FF92C92FDD2788232AF0219781
S1131E00660F771F881FDAF720E030E040E85FEBC9
S1131E109FE3883920F0803E38F021968F770E9426
S1131E20A10AE9EFF0E004C00E94A10AE6E2F1E0B1
S1131E300E948E0C8B01BE01EC01FB2E6F577109C1
S1131E407595771F880B990B0E94060C28E132E7E1
S1131E5041E35FE30E942C0DAF2D9801AE01FF908A
S1131E600F911F91CF91DF910E94B80A0C94D70C67
S1131E70FA01DC01AA0FBB1F9B01AC01BF5728F478
S1131E80222733274427507820C0B75190F4AB2F32
S1131E900024469537952795011CA395D2F300207D
S1131EA071F0220F331F441FB395DAF30ED00C9454
S1131EB0A00A61307105A0E88A07B94630F49B0195
S1131EC0AC016627772788279078309621F0208305
S1131ED03183428353830895A1E21A2EAA1BBB1BAC
S1131EE0FD010DC0AA1FBB1FEE1FFF1FA217B307E2
S1131EF0E407F50720F0A21BB30BE40BF50B661FF8
S1131F00771F881F991F1A9469F7609570958095BB
S1131F1090959B01AC01BD01CF010895A0E0B0E014
S1131F20E4E9FFE00C942E175C016B017A01611562
S1131F30710519F0FB0191838083E114F10429F008
S1131F40C7010297839708F0E5C0E5012196F501E2
S1131F501081812F90E00E94A410892B11F05E0162
S1131F60F4CF1D3229F42196F501118101E007C057
S1131F701B3221F4E5012296F501118100E0E11400
S1131F80F10409F1F0E1EF16F10429F43FC010E384
S1131F90E114F10421F128E0E216F10401F154F412
S1131FA0E2E0EE16F10421F5812C912CA12CB0E491
S1131FB0BB2E3EC0FAE0EF16F10439F020E1E21640
S1131FC0F104B1F430C0103319F1FAE0EF2EF12C22
S1131FD0ACEC8A2E982CA82CACE0BA2E29C078E060
S1131FE0E72EF12C812C912CA12CE0E1BE2E20C0F7
S1131FF060E070E080E090E897010F2C000C440B47
S1132000550B0E946C0F49015A0112C0103359F448
S113201088818F7D883509F0BACF198122960260B4
S113202080E1E82EF12C812C912CA12C68E0B62EB5
S113203040E060E070E0CB0127010F2C000C660843
S11320407708FE0150ED352E310E29E0231570F48A
S11320502FEB210F2A3118F439EC332E06C02FE967
S1132060210F2A3118F529EA322E310E232D30E0C2
S11320702E153F05DCF447FD16C086169706A80604
S1132080B90670F0A30192010E941217630D711D2D
S1132090811D911D61307105810520E8920710F0C2
S11320A04FEF01C041E021961081CBCF202F21704A
S11320B0C114D10471F0442329F02197F601D1838E
S11320C0C08307C001FF19C02297F601D183C083E2
S11320D014C047FF12C0222329F060E070E080E0C2
S11320E090E804C06FEF7FEF8FEF9FE722E230E0CC
S11320F03093DF072093DE0709C0222381F09095F7
S11321008095709561957F4F8F4F9F4F462F372F46
S1132110282F12C040E030E020E090E00DC097FF8F
S1132120F5CF82E290E09093DF078093DE076FEFB4
S11321307FEF8FEF9FE7EACF642F732F822FCDB706
S1132140DEB7E1E10C944A1791110C94FD1580322D
S113215019F089508550C8F7089540EB52E00E9469
S1132160B9100895FB01DC0101900D920020E1F704
S11321700895FA01A191B081009719F41097E1F044
S1132180CD01DC01CD010D90002011F4C00113C07C
S1132190FB012191222319F02015D9F7F3CFFB017C
S11321A02191201519F41E92119606C02223C1F71D
S11321B00D900020A1F7D001FA01A193B0830895F6
S11321C0A0E0B0E0E6EEF0E10C943D17AE014B5F09
S11321D05F4FFA0161917191AF018091E207909193
S11321E0E3070E946F11E2E00C9459170F931F93B9
S11321F0CF93DF93E091E207F091E307238121FF7E
S11322001BC08C01D0E0C0E0F80181918F01609186
S1132210E2077091E307DB011896ED91FC911997A1
S1132220882331F00995892B79F3DFEFCFEFECCFD9
S11322308AE00995892B19F08FEF9FEF02C08D2F4B
S11322409C2FDF91CF911F910F910895AEE0B0E0E4
S1132250ECE2F1E10C943B170D891E898F89988D6E
S113226026E02C831A83098397FF02C080E090E85C
S113227001979E838D83AE01455E5F4F698D7A8D94
S1132280CE0101960E946F114D815E8157FD0AC0F7
S11322902F813885421753070CF49A01F801E20F95
S11322A0F31F10822E96E4E00C945717AEE0B0E0D2
S11322B0ECE5F1E10C943D1785E08C838B899C89D6
S11322C09A838983AE01495E5F4F6D897E89CE0111
S11322D001960E94EC142E96E2E00C945917ABE0A0
S11322E0B0E0E5E7F1E10C942D176C017B018A0164
S11322F0FC0117821682838181FFCCC1CE01019635
S11323003C01F6019381F70193FD859193FF81913F
S11323107F01882309F4BAC1853239F493FD85918C
S113232093FF81917F01853229F4B60190E00E94E8
S11323305F16E7CF912C212C312CFFE1F315D8F057
S11323408B3279F038F4803279F08332A1F4232D82
S113235020611DC08D3261F0803369F4232D21602A
S113236016C0832D8260382EE32DE4603E2E2AC0F1
S1132370F32DF8601DC037FC2DC020ED280F2A3046
S113238040F08E32B9F436FC81C1232D2064322E04
S113239019C036FE06C08AE0989E200D1124922EA4
S11323A011C0EAE02E9E200D1124222EF32DF0629E
S11323B03F2E08C08C3621F4832D8068382E02C04D
S11323C0883641F4F70193FD859193FF81917F0154
S11323D08111B3CF982F9F7D9554933028F40C5FCF
S11323E01F4F9FE399830DC0833631F0833771F01B
S11323F0833509F059C021C0F801808189830E5FBB
S11324001F4F88248394912C530113C02801F2E0B8
S11324104F0E511CF801A080B18036FE03C0692D17
S113242070E002C06FEF7FEFC5010E9416164C01E9
S11324308201F32DFF773F2E16C0280122E0420EC1
S1132440511CF801A080B18036FE03C0692D70E0F4
S113245002C06FEF7FEFC5010E940B164C01F32DF4
S1132460F0683F2E820133FC1BC0822D90E0881659
S11324709906B0F4B60180E290E00E945F162A94B7
S1132480F4CFF50137FC859137FE81915F01B601E8
S113249090E00E945F1621102A9421E0821A91088C
S11324A08114910471F7E8C0843611F0893641F53E
S11324B0F80137FE07C060817181828193810C5FCE
S11324C01F4F08C060817181072E000C880B990B87
S11324D00E5F1F4FF32DFF763F2E97FF09C0909597
S11324E08095709561957F4F8F4F9F4FF0683F2E79
S11324F02AE030E0A3010E94B416882E861845C055
S1132500853731F4232D2F7EB22E2AE030E025C00A
S1132510932D997FB92E8F36C1F018F4883579F050
S1132520B5C0803719F0883721F0B0C0E92FE061D9
S1132530BE2EB4FE0DC0FB2DF460BF2E09C034FEC8
S11325400AC0292F2660B22E06C028E030E005C05C
S113255020E130E002C020E132E0F801B7FE07C01C
S113256060817181828193810C5F1F4F06C06081FD
S1132570718180E090E00E5F1F4FA3010E94B416AA
S1132580882E8618FB2DFF773F2E36FE0DC0232D97
S11325902E7FA22E891458F434FE0BC032FC09C0DD
S11325A0832D8E7EA82E05C0B82CA32C03C0B82C76
S11325B001C0B92CA4FE0FC0FE01E80DF11D8081FD
S11325C0803321F49A2D997EA92E09C0A2FE06C05B
S11325D0B394B39404C08A2D867809F0B394A3FC11
S11325E011C0A0FE06C0B21488F4280C922C9B18CB
S11325F00EC0B21460F4B60180E290E00E945F164F
S1132600B394F7CFB21418F42B1802C0982C212CD1
S1132610A4FE10C0B60180E390E00E945F16A2FE03
S113262017C0A1FC03C088E790E002C088E590E0F1
S1132630B6010CC08A2D867859F0A1FE02C08BE247
S113264001C080E2A7FC8DE2B60190E00E945F1613
S1132650891438F4B60180E390E00E945F169A94DE
S1132660F7CF8A94F301E80DF11D8081B60190E063
S11326700E945F168110F5CF222009F442CEB601E4
S113268080E290E00E945F162A94F6CFF6018681DC
S1132690978102C08FEF9FEF2B96E2E10C944917CC
S11326A020FD09C0FC0123FD05C022FF02C0738385
S11326B0628351834083089544FD17C046FD17C0CB
S11326C0AB01BC01DA01FB01AA0FBB1FEE1FFF1F08
S11326D01094D1F74A0F5B1F6E1F7F1FCB01BA0105
S11326E0660F771F881F991F09C033E001C034E0CB
S11326F0660F771F881F991F3150D1F7620F711D24
S1132700811D911D08950F931F93CF93DF938C0127
S1132710C8010E942116EC0197FD08C00E94A41074
S1132720892BB1F7B801CE010E949B16CE01DF912F
S1132730CF911F910F9108958F929F92AF92BF9264
S1132740EF92FF920F931F93CF93DF938C01D62FB9
S11327507A01B22E0E9421169C0133272B323105B7
S113276031F02D32310561F48B2D8068B82ED150B3
S113277011F480E068C0C8010E94211697FDF9CFCA
S1132780CB2DCD7F2B2D207309F58033F9F4AA24AA
S1132790AA94AD0E09F443C0C8010E94211697FD06
S11327A03EC09C012F7D33272835310549F4C2648E
S11327B0D250A9F1C8010E94211697FF07C02FC06B
S11327C0B6FE02C0C26001C0C261DA2D812C912C18
S11327D0540120ED280F283080F0C4FF04C0B80154
S11327E00E949B1619C02A3040F0C6FFF8CF2F7DF7
S11327F03FEE320F363098F727504C2FC501B40105
S11328000E945C134B015C01C260D15059F0C801B5
S11328100E94211697FFDDCFC1FD04C0AACF812CF1
S1132820912C5401C7FF08C0B094A0949094809454
S1132830811C911CA11CB11C2C2FB501A401C70142
S11328400E94501381E0DF91CF911F910F91FF906F
S1132850EF90BF90AF909F908F900895A0E2B0E06A
S1132860E4E3F4E10C9430175C01962E7A01F9014B
S11328708E010F5F1F4F680180E2D8011D928A9577
S1132880E9F7D50113968C9080E090E0612C712CCF
S113289030E061E070E083FC259183FE21918F019B
S11328A0522E211103C080E090E092C02E3511F425
S11328B0009751F1432F50E0481759073CF42D3548
S11328C059F12D3219F4772009F103C0772009F466
S11328D06AC0452D469546954695D601A40FB11D6F
S11328E0452D47708B0102C0000F111F4A95E2F776
S11328F0A8015C91452B4C93651459F0561410F4BF
S11329005394E7CF5A94E5CF31E004C0772473940D
S113291001C0712C0196BFCF772019F08E8180629F
S11329208E83311103C08824839417C0F6019E015D
S11329302F5D3F4F8081809581932E173F07D1F7FC
S1132940F2CFE114F10429F0D7018C93F701319609
S11329507F019A94812C9920F9F0C5010E942116D7
S113296097FD18C0FC01FF2723E0F595E7952A950C
S1132970E1F7EC0DFD1D208130E0AC0147705527D7
S113298002C0359527954A95E2F720FDDACFB501C7
S11329900E949B16811087CFE114F10411F0D70136
S11329A01C92C80115C0422F469546954695D601FE
S11329B0A40FB11D422F47708B0102C0000F111FDD
S11329C04A95E2F7A8015C91452B4C93622EA2CF65
S11329D0A096EFE00C944C17A0E0B0E0E2EFF4E135
S11329E00C9430176C01EB015A01FC01178216821A
S11329F0512CF601E380FE01E3FC8591E3FE819115
S1132A00182FEF01882309F4EEC090E00E94A4106F
S1132A10892B21F0C6010E948313EBCF153241F4B8
S1132A20FE01E3FC1591E3FE1191EF01153281F4EF
S1132A30C6010E94211697FDD4C0412F50E09C018D
S1132A40332724173507A9F2B6010E949B16CBC081
S1132A501A3239F4E3FC1591E3FE1191EF0101E020
S1132A6001C000E0F12C20ED210F2A3080F4026037
S1132A706F2D70E080E090E040E20E945C13F62E3F
S1132A80FE01E3FC1591E3FE1191EF01ECCF01FF90
S1132A9003C0F11003C0A7C0FF24FA94183619F03C
S1132AA01C3651F010C0FE01E3FC1591E3FE1191B8
S1132AB0EF01183641F408600460FE01E3FC15914F
S1132AC0E3FE1191EF01112309F48DC0612F70E031
S1132AD084E591E00E940016892B09F484C000FD6E
S1132AE007C0F50180809180C50102965C0102C097
S1132AF0812C912C1E3651F4F6014681578160E0F9
S1132B0070E0202FC4010E94501373CF1336A9F430
S1132B1001FD02C0FF24F394C6010E94211697FD13
S1132B2060C08114910429F0F4018083C4010196EA
S1132B304C01FA94F110F0CF50C01B3559F49E01AA
S1132B40A4016F2DC6010E942E14EC01892B09F0FB
S1132B5044C03EC0C6010E94831397FD42C01F3685
S1132B6061F128F4143639F1193651F128C01337BC
S1132B7071F0153701F123C08114910429F0F40197
S1132B806082C40101964C01FA94FF2071F0C601E1
S1132B900E9421163C0197FD08C00E94A410892BB5
S1132BA059F3B601C3010E949B1681149104A9F044
S1132BB0F401108212C0006203C0006101C000640D
S1132BC0202FA4016F2DC6010E949C13811105C002
S1132BD0F6018381807329F406C000FD0ACF539463
S1132BE008CF552019F0852D90E002C08FEF9FEF9C
S1132BF0CDB7DEB7EFE00C944C17992788270895DA
S1132C00FC010590061621F00020D9F7C0010895B3
S1132C103197CF010895FC01059061507040011077
S1132C20D8F7809590958E0F9F1F0895FC016150F1
S1132C30704001900110D8F7809590958E0F9F1FDA
S1132C400895CF93DF93EC012B8120FF33C026FF3F
S1132C500AC02F7B2B838E819F8101969F838E8355
S1132C608A8190E029C022FF0FC0E881F981808128
S1132C70082E000C990B009719F420622B831AC0BC
S1132C803196F983E8830EC0EA85FB85099597FFA1
S1132C9009C02B81019611F080E201C080E1822BF2
S1132CA08B8308C02E813F812F5F3F4F3F832E834C
S1132CB0992702C08FEF9FEFDF91CF9108950F9373
S1132CC01F93CF93DF93FB01238121FD03C08FEF7B
S1132CD09FEF2CC022FF16C0468157812481358185
S1132CE04217530744F4A081B1819D012F5F3F4FE8
S1132CF0318320838C93268137812F5F3F4F378325
S1132D00268314C08B01EC01FB010084F185E02DC6
S1132D100995892BE1F6D80116968D919C91179708
S1132D20019617969C938E931697CE01DF91CF91BF
S1132D301F910F910895FB01238120FF12C026FDEE
S1132D4010C08F3F3FEF930761F082832F7D206493
S1132D50238326813781215031093783268399279C
S1132D6008958FEF9FEF0895FA01AA27283051F1B3
S1132D70203181F1E8946F936E7F6E5F7F4F8F4FA8
S1132D809F4FAF4FB1E03ED0B4E03CD0670F781F07
S1132D90891F9A1FA11D680F791F8A1F911DA11DEC
S1132DA06A0F711D811D911DA11D20D009F4689425
S1132DB03F912AE0269F11243019305D3193DEF6CD
S1132DC0CF010895462F4770405D4193B3E00FD083
S1132DD0C9F7F6CF462F4F70405D4A3318F0495D6E
S1132DE031FD4052419302D0A9F7EACFB4E0A69551
S1132DF09795879577956795BA95C9F70097610573
S1132E00710508959B01AC010A2E069457954795C8
S1132E1037952795BA95C9F7620F731F841F951FBD
S1132E20A01D0895DB018F939F930E942217BF91E9
S1132E30AF91A29F800D911DA39F900DB29F900D05
S1132E40112408950E946417A59F900DB49F900DBE
S1132E50A49F800D911D112408952F923F924F92AB
S1132E605F926F927F928F929F92AF92BF92CF9216
S1132E70DF92EF92FF920F931F93CF93DF93CDB71F
S1132E80DEB7CA1BDB0B0FB6F894DEBF0FBECDBF97
S1132E9009942A88398848885F846E847D848C8468
S1132EA09B84AA84B984C884DF80EE80FD800C8171
S1132EB01B81AA81B981CE0FD11D0FB6F894DEBF54
S1132EC00FBECDBFED010895A29FB001B39FC00115
S1132ED0A39F700D811D1124911DB29F700D811D42
S10D2EE01124911D0895F894FFCF0A
S1132EEA0100002041FFFF0000256400696E2049AB
S1132EFA46200A00736C0A006D6C0A00666C0A00AC
S1132F0A766C0A0073720A006D720A0066720A000D
S1132F1A76720A00730A0073620A006D620A006616
S1132F2A620A0076620A000A696E20656C7365207B
S1132F3A0A0020793D200073660A006D660A00665D
S1132F4A660A0076660A000A727373692076616CEF
S1132F5A7565203D20000A727373692076616C7569
S1132F6A6520696E20656C7365203D200073747258
S1132F7A696E6720696E2073706C69740A00696EE1
S1132F8A2072657475726E2073706C69740A0025F8
S1132F9A5B5E2C5D2C255B5E2C5D2C255B5E2C5DBB
S1132FAA2C257300255B5E3A5D3A255B5E3A5D3AF1
S1132FBA255B5E3A5D3A255B5E3A5D3A2573000A03
S1132FCA746F6B656E203D20000A66697273742003
S1132FDA3D20000A746F6B656E206265666F7265C8
S1132FEA20627265616B203D200A00526573756C1C
S1132FFA74616E742061727261792069730025307C
S113300A2E3366090078203D2025302E32660A794F
S113301A203D2025302E32660A7468657461203D8D
S113302A2025660041540D0A0061742B696E697487
S113303A0D0A0061742B6961633D39653862333363
S113304A0061742B636C6173733D300D0A00617403
S113305A2B696E716D3D312C392C34380D0A0041BF
S113306A742B696E710D0A00696E206C6F6F700A99
S113307A007468652072737369203D25640A0061CF
S113308A6674657220696E6974207074720A00002D
S9030000FC
