:100000003AC0000048C0000046C0000044C00000E4
:1000100042C0000040C000003EC000003CC00000E4
:100020003AC0000038C0000036C0000034C00000F4
:1000300032C000009BC000002EC000002CC0000099
:100040002AC0000028C0000026C0000024C0000014
:1000500022C0000020C000001EC000001CC0000024
:100060001AC0000018C00000EB00D700DC00E1005F
:10007000E600F000F50011241FBECFEFD8E0DEBF90
:10008000CDBF21E0A0E0B1E001C01D92A331B207D5
:10009000E1F785D1B2C3B4CF87B18C6187B988B19C
:1000A000837E88B9219A299888B1836088B9089598
:1000B00020E42AB923E824BD21E020936E0020E04B
:1000C00030E048EC52E4C4D120E030E04FE753E4A4
:1000D00009D326D267BD85E085BD08953D9A289A4B
:1000E00081E080936F00109280000895459A8AE124
:1000F0008A95F1F700C0459810928500109284000F
:1001000081E48093810080E286BB81E086BBB59B61
:10011000FECF109285001092840081E080938100D0
:1001200090E296BB86BB1092010110920001B59B34
:10013000FECF609186007091870080E090E0609330
:100140000B0170930C0180930D0190930E0116D258
:1001500029E23CE349EE53E47BD1609306017093BE
:100160000701809308019093090108951F920F924F
:100170000FB60F9211248F939F93F89480910001F2
:1001800090910101019690930101809300011895CF
:100190009F918F910F900FBE0F901F90189590E038
:1001A0008730910530F5FC01EC5CFF4F20C3299AA4
:1001B0004498439A429808952998449A4398429AB9
:1001C0000895299A44984398429808952998449804
:1001D000439A4298089529984498439842980895DC
:1001E0002998449A439842980895299844984398A6
:1001F000429A089580910A01803321F483E5809327
:100200000A014FC0813331F460E070E080E291E494
:100210004FDF47C0823331F460E070E080E491E466
:1002200047DF3FC0833331F460E070E080E691E463
:100230003FDF37C0843331F460E070E080E891E460
:1002400037DF2FC0853331F460E070E080E991E45E
:100250002FDF27C0863331F460E070E080EA91E45C
:1002600027DF1FC0873331F460E070E080EF91E456
:100270001FDF17C0873511F45B9A13C0873711F45D
:100280005B980FC0853511F45C9A0BC0853711F46B
:100290005C9807C0863511F45D9A03C0863709F46F
:1002A0005D9880910A01089580910A01823419F4C1
:1002B00082E075CF0895873411F08C3419F483E00F
:1002C0006ECF0895893411F0823519F484E067CF38
:1002D0000895833519F480E062CF0895883419F4C5
:1002E00085E05DCF08958A3411F486E058CF0895F3
:1002F00080910A01863411F481E051DF80910A0176
:10030000823419F482E04BCF0895873411F08C3495
:1003100019F483E044CF0895893411F0823519F43B
:1003200084E03DCF0895833519F480E038CF0895F7
:10033000883419F485E033CF08958A3411F486E0C7
:100340002ECF0895CF92DF92EF92FF92C0900F01CF
:10035000D0901001E0901101F090120120E030E007
:1003600040E751E4C701B6016FD018162CF05A9837
:1003700080E015DF99DF0EC020E030E040E751E477
:10038000C701B601ABD1882314F0B2DF03C05A9A7B
:1003900080E005DFFF90EF90DF90CF9008958AB165
:1003A0008C618AB98BB1837E8BB998DE75DE80E86B
:1003B00095E218D0609102017091030180910401CF
:1003C0009091050175DE38D080930A0113DF8EDE2F
:1003D00060930F01709310018093110190931201AB
:1003E000B1DFF1CFA0E0B0E0880F991FAA1FBB1FBB
:1003F000880F991FAA1FBB1F9C01AD01220F331F3D
:10040000441F551F220F331F441F551F60E072E128
:100410008AE790E0CAD1215031092093C40030937B
:10042000C500E2ECF0E0808186608083E1ECF0E0E2
:100430008081886980830895E0ECF0E080818823E2
:10044000ECF78091C6000895D4D008F481E00895B7
:100450000CD00AC102D140F0F9D030F021F45F3F56
:1004600019F0EBC0511134C1EEC00FD198F39923AC
:10047000C9F35523B1F3951B550BBB27AA27621768
:100480007307840738F09F5F5F4F220F331F441FAD
:10049000AA1FA9F333D00E2E3AF0E0E830D09150E5
:1004A0005040E695001CCAF729D0FE2F27D0660FD2
:1004B000771F881FBB1F261737074807AB07B0E811
:1004C00009F0BB0B802DBF01FF2793585F4F2AF027
:1004D0009E3F510568F0B1C0FBC05F3FECF3983E12
:1004E000DCF3869577956795B795F7959F5FC9F784
:1004F000880F911D9695879597F90895E1E0660F0D
:10050000771F881FBB1F621773078407BA0720F085
:10051000621B730B840BBA0BEE1F88F7E0950895EE
:10052000BCD088F09F5790F0B92F9927B751A0F011
:10053000D1F0660F771F881F991F1AF0BA95C9F777
:1005400012C0B13081F0C3D0B1E00895C0C0672FB0
:10055000782F8827B85F39F0B93FCCF38695779527
:100560006795B395D9F73EF4909580957095619510
:100570007F4F8F4F9F4F0895E89409C097FB3EF43B
:1005800090958095709561957F4F8F4F9F4F9923E0
:10059000A9F0F92F96E9BB279395F695879577955E
:1005A0006795B795F111F8CFFAF4BB0F11F460FF1E
:1005B0001BC06F5F7F4F8F4F9F4F16C0882311F076
:1005C00096E911C0772321F09EE8872F762F05C08A
:1005D000662371F096E8862F70E060E02AF09A9525
:1005E000660F771F881FDAF7880F9695879597F91A
:1005F0000895990F0008550FAA0BE0E8FEEF1616B4
:100600001706E807F907C0F012161306E407F50706
:1006100098F0621B730B840B950B39F40A2661F07A
:10062000232B242B252B21F408950A2609F4A1401D
:10063000A6958FEF811D811D089597F99F6780E82A
:1006400070E060E008959FEF80EC089500240A9424
:100650001616170618060906089500240A9412169D
:100660001306140605060895092E0394000C11F4D0
:10067000882352F0BB0F40F4BF2B11F460FF04C07D
:100680006F5F7F4F8F4F9F4F089557FD9058440FD6
:10069000551F59F05F3F71F04795880F97FB991FE1
:1006A00061F09F3F79F0879508951216130614069E
:1006B000551FF2CF4695F1DF08C01616170618062B
:1006C000991FF1CF86957105610508940895E89406
:1006D000BB2766277727CB0197F908958ADF08F4AF
:1006E0008FEF08950BD0C0CFB1DF28F0B6DF18F040
:1006F000952309F0A2CFA7CF1124EACFC6DFA0F33C
:10070000959FD1F3950F50E0551F629FF001729FA6
:10071000BB27F00DB11D639FAA27F00DB11DAA1FC5
:10072000649F6627B00DA11D661F829F2227B00D12
:10073000A11D621F739FB00DA11D621F839FA00D9D
:10074000611D221F749F3327A00D611D231F849FED
:10075000600D211D822F762F6A2F11249F57504044
:100760008AF0E1F088234AF0EE0FFF1FBB1F661FDF
:10077000771F881F91505040A9F79E3F510570F098
:100780005CCFA6CF5F3FECF3983EDCF38695779580
:100790006795B795F795E7959F5FC1F7FE2B880F93
:1007A000911D9695879597F90895A1E21A2EAA1B97
:1007B000BB1BFD010DC0AA1FBB1FEE1FFF1FA21711
:1007C000B307E407F50720F0A21BB30BE40BF50B0E
:1007D000661F771F881F991F1A9469F76095709597
:1007E000809590959B01AC01BD01CF010895EE0F5E
:0E07F000FF1F0590F491E02D0994F894FFCFBF
:00000001FF
