:100000000C9434000C9451000C9451000C94510049
:100010000C9451000C9451000C9451000C9451001C
:100020000C9451000C9451000C9451000C9451000C
:100030000C9451000C9451000C9451000C945100FC
:100040000C9451000C9451000C9451000C945100EC
:100050000C9451000C9451000C9451000C945100DC
:100060000C9451000C94510011241FBECFEFD8E026
:10007000DEBFCDBF11E0A0E0B1E0E0EFF1E002C0F3
:1000800005900D92AC36B107D9F721E0ACE6B1E0AE
:1000900001C01D92AC36B207E1F70E9453000C94E8
:1000A000F6000C9400008AB18C608AB95B9880E8F5
:1000B00095E20E94920078945A9A80E091E00E9422
:1000C000C5002FEF80E792E0215080409040E1F79B
:1000D00000C0000082E291E00E94C5002FEF80E79F
:1000E00092E0215080409040E1F700C0000084E49D
:1000F00091E00E94C5002FEF80E792E02150804000
:100100009040E1F700C0000086E691E00E94C50043
:100110002FEF89E698E1215080409040E1F700C040
:100120000000CBCFA0E0B0E0880F991FAA1FBB1F33
:10013000880F991FAA1FBB1F9C01AD01220F331FFF
:10014000441F551F220F331F441F551F60E072E1EB
:100150008AE790E00E94D400215031092093C40026
:100160003093C500E2ECF0E0808186608083E1ECB2
:10017000F0E08081886180830895E0ECF0E0908178
:1001800095FFFDCF8093C6000895CF93DF93EC01D8
:1001900005C00E94BD0088818A3019F089918111C3
:1001A000F8CFDF91CF910895A1E21A2EAA1BBB1BB5
:1001B000FD010DC0AA1FBB1FEE1FFF1FA217B30733
:1001C000E407F50720F0A21BB30BE40BF50B661F49
:1001D000771F881F991F1A9469F76095709580950D
:1001E00090959B01AC01BD01CF010895F894FFCF1C
:1001F0002B494E513A394345363A45373A31363034
:100200004542322C3541303230432C464643380D7E
:100210000A002B494E513A344341353A36443A317B
:1002200030453444342C3541303230432C4646423C
:10023000370D0A002B494E513A344341353A364482
:100240003A3136303065642C3541303230432C46FB
:0C0250004643330D0A004F4B0D0A00001E
:00000001FF
